{
  "_format": "hh3-artifact-1",
  "contractName": "VotingSimple",
  "sourceName": "contracts/VotingSimple.sol",
  "abi": [
    {
      "inputs": [
        {
          "internalType": "string[]",
          "name": "candidateNames",
          "type": "string[]"
        }
      ],
      "stateMutability": "nonpayable",
      "type": "constructor"
    },
    {
      "anonymous": false,
      "inputs": [
        {
          "indexed": true,
          "internalType": "address",
          "name": "voter",
          "type": "address"
        },
        {
          "indexed": false,
          "internalType": "uint256",
          "name": "candidateIndex",
          "type": "uint256"
        }
      ],
      "name": "Voted",
      "type": "event"
    },
    {
      "anonymous": false,
      "inputs": [
        {
          "indexed": true,
          "internalType": "address",
          "name": "voter",
          "type": "address"
        }
      ],
      "name": "VoterAdded",
      "type": "event"
    },
    {
      "anonymous": false,
      "inputs": [],
      "name": "VotingOpened",
      "type": "event"
    },
    {
      "inputs": [
        {
          "internalType": "address",
          "name": "voter",
          "type": "address"
        }
      ],
      "name": "addVoter",
      "outputs": [],
      "stateMutability": "nonpayable",
      "type": "function"
    },
    {
      "inputs": [
        {
          "internalType": "address",
          "name": "",
          "type": "address"
        }
      ],
      "name": "authorizedVoters",
      "outputs": [
        {
          "internalType": "bool",
          "name": "",
          "type": "bool"
        }
      ],
      "stateMutability": "view",
      "type": "function"
    },
    {
      "inputs": [
        {
          "internalType": "uint256",
          "name": "",
          "type": "uint256"
        }
      ],
      "name": "candidates",
      "outputs": [
        {
          "internalType": "string",
          "name": "name",
          "type": "string"
        },
        {
          "internalType": "uint256",
          "name": "voteCount",
          "type": "uint256"
        }
      ],
      "stateMutability": "view",
      "type": "function"
    },
    {
      "inputs": [],
      "name": "getCandidateCount",
      "outputs": [
        {
          "internalType": "uint256",
          "name": "",
          "type": "uint256"
        }
      ],
      "stateMutability": "view",
      "type": "function"
    },
    {
      "inputs": [],
      "name": "getWinner",
      "outputs": [
        {
          "internalType": "string",
          "name": "",
          "type": "string"
        }
      ],
      "stateMutability": "view",
      "type": "function"
    },
    {
      "inputs": [
        {
          "internalType": "address",
          "name": "",
          "type": "address"
        }
      ],
      "name": "hasVoted",
      "outputs": [
        {
          "internalType": "bool",
          "name": "",
          "type": "bool"
        }
      ],
      "stateMutability": "view",
      "type": "function"
    },
    {
      "inputs": [],
      "name": "owner",
      "outputs": [
        {
          "internalType": "address",
          "name": "",
          "type": "address"
        }
      ],
      "stateMutability": "view",
      "type": "function"
    },
    {
      "inputs": [],
      "name": "startVoting",
      "outputs": [],
      "stateMutability": "nonpayable",
      "type": "function"
    },
    {
      "inputs": [
        {
          "internalType": "uint256",
          "name": "candidateIndex",
          "type": "uint256"
        }
      ],
      "name": "vote",
      "outputs": [],
      "stateMutability": "nonpayable",
      "type": "function"
    },
    {
      "inputs": [],
      "name": "votingOpen",
      "outputs": [
        {
          "internalType": "bool",
          "name": "",
          "type": "bool"
        }
      ],
      "stateMutability": "view",
      "type": "function"
    }
  ],
  "bytecode": "0x608060405234801561000f575f5ffd5b50604051610b9c380380610b9c83398101604081905261002e916100ff565b600380546001600160a01b031916331790555f5b81518110156100b4575f604051806040016040528084848151811061006957610069610223565b60209081029190910181015182525f9181018290528354600181018555938252902081519192600202019081906100a090826102bb565b506020919091015160019182015501610042565b5050610375565b634e487b7160e01b5f52604160045260245ffd5b604051601f8201601f191681016001600160401b03811182821017156100f7576100f76100bb565b604052919050565b5f6020828403121561010f575f5ffd5b81516001600160401b03811115610124575f5ffd5b8201601f81018413610134575f5ffd5b80516001600160401b0381111561014d5761014d6100bb565b8060051b61015d602082016100cf565b91825260208184018101929081019087841115610178575f5ffd5b6020850192505b838310156102185782516001600160401b0381111561019c575f5ffd5b8501603f810189136101ac575f5ffd5b60208101516001600160401b038111156101c8576101c86100bb565b6101db601f8201601f19166020016100cf565b8181526040838301018b10156101ef575f5ffd5b8160408401602083015e5f6020838301015280855250505060208201915060208301925061017f565b979650505050505050565b634e487b7160e01b5f52603260045260245ffd5b600181811c9082168061024b57607f821691505b60208210810361026957634e487b7160e01b5f52602260045260245ffd5b50919050565b601f8211156102b657805f5260205f20601f840160051c810160208510156102945750805b601f840160051c820191505b818110156102b3575f81556001016102a0565b50505b505050565b81516001600160401b038111156102d4576102d46100bb565b6102e8816102e28454610237565b8461026f565b6020601f82116001811461031a575f83156103035750848201515b5f19600385901b1c1916600184901b1784556102b3565b5f84815260208120601f198516915b828110156103495787850151825560209485019460019092019101610329565b508482101561036657868401515f19600387901b60f8161c191681555b50505050600190811b01905550565b61081a806103825f395ff3fe608060405234801561000f575f5ffd5b506004361061009b575f3560e01c806366acfa4a1161006357806366acfa4a146101245780638da5cb5b146101465780638e7ea5b214610171578063a95824b414610186578063f4ab9adf1461019a575f5ffd5b80630121b93f1461009f57806309eef43e146100b45780631ec6b60a146100eb57806330a56347146100f35780633477ee2e14610103575b5f5ffd5b6100b26100ad3660046106cf565b6101ad565b005b6100d66100c23660046106e6565b60026020525f908152604090205460ff1681565b60405190151581526020015b60405180910390f35b6100b2610339565b5f546040519081526020016100e2565b6101166101113660046106cf565b610418565b6040516100e2929190610741565b6100d66101323660046106e6565b60016020525f908152604090205460ff1681565b600354610159906001600160a01b031681565b6040516001600160a01b0390911681526020016100e2565b6101796104cc565b6040516100e29190610762565b6003546100d690600160a01b900460ff1681565b6100b26101a83660046106e6565b6105df565b335f9081526001602081905260409091205460ff1615151461020d5760405162461bcd60e51b81526020600482015260146024820152732830b99030baba37b934b9b29030903b37ba32b960611b60448201526064015b60405180910390fd5b600354600160a01b900460ff16151560011461025f5760405162461bcd60e51b81526020600482015260116024820152704c6520766f746520657374206665726d6560781b6044820152606401610204565b335f9081526002602052604090205460ff16156102b45760405162461bcd60e51b8152602060048201526013602482015272566f7573206176657a2064656a6120766f746560681b6044820152606401610204565b335f908152600260205260408120805460ff191660011790558054829081106102df576102df610774565b5f918252602082206001600290920201018054916102fc83610788565b909155505060405181815233907f4d99b957a2bc29a30ebd96a7be8e68fe50a3c701db28a91436490b7d53870ca49060200160405180910390a250565b6003546001600160a01b031633146103815760405162461bcd60e51b815260206004820152600b60248201526a2830b9903613b0b236b4b760a91b6044820152606401610204565b600354600160a01b900460ff16156103db5760405162461bcd60e51b815260206004820152601760248201527f4c6520766f7465206573742064656a61206f75766572740000000000000000006044820152606401610204565b6003805460ff60a01b1916600160a01b1790556040517fa737faa632a36c00ccb4220893426e922f9442f1cab67acd8301f88a596d4abc905f90a1565b5f8181548110610426575f80fd5b905f5260205f2090600202015f91509050805f018054610445906107ac565b80601f0160208091040260200160405190810160405280929190818152602001828054610471906107ac565b80156104bc5780601f10610493576101008083540402835291602001916104bc565b820191905f5260205f20905b81548152906001019060200180831161049f57829003601f168201915b5050505050908060010154905082565b60605f60015b5f54811015610531575f82815481106104ed576104ed610774565b905f5260205f209060020201600101545f828154811061050f5761050f610774565b905f5260205f209060020201600101541115610529578091505b6001016104d2565b505f818154811061054457610544610774565b905f5260205f2090600202015f01805461055d906107ac565b80601f0160208091040260200160405190810160405280929190818152602001828054610589906107ac565b80156105d45780601f106105ab576101008083540402835291602001916105d4565b820191905f5260205f20905b8154815290600101906020018083116105b757829003601f168201915b505050505091505090565b6003546001600160a01b031633146106275760405162461bcd60e51b815260206004820152600b60248201526a2830b9903613b0b236b4b760a91b6044820152606401610204565b6001600160a01b0381165f9081526001602052604090205460ff16156106815760405162461bcd60e51b815260206004820152600f60248201526e44656a6120656e726567697374726560881b6044820152606401610204565b6001600160a01b0381165f818152600160208190526040808320805460ff1916909217909155517fa636f4a11e2d3ba7f89d042ecb0a6b886716e98cd49d8fd876ee0f73bced42b89190a250565b5f602082840312156106df575f5ffd5b5035919050565b5f602082840312156106f6575f5ffd5b81356001600160a01b038116811461070c575f5ffd5b9392505050565b5f81518084528060208401602086015e5f602082860101526020601f19601f83011685010191505092915050565b604081525f6107536040830185610713565b90508260208301529392505050565b602081525f61070c6020830184610713565b634e487b7160e01b5f52603260045260245ffd5b5f600182016107a557634e487b7160e01b5f52601160045260245ffd5b5060010190565b600181811c908216806107c057607f821691505b6020821081036107de57634e487b7160e01b5f52602260045260245ffd5b5091905056fea26469706673582212205efdf32ac6d9f872b8cd0cf6c7c9858444d8a7044e9dbedcc19858ddd711525f64736f6c634300081c0033",
  "linkReferences": {},
  "deployedLinkReferences": {},
  "immutableReferences": {},
  "inputSourceName": "project/contracts/VotingSimple.sol",
  "buildInfoId": "solc-0_8_28-0b70782d22866db42645c69de963d832ece35ad3"
}